{
  "_format": "hh-sol-artifact-1",
  "contractName": "CertificateAuthority",
  "sourceName": "contracts/CertificateAuthority.sol",
  "abi": [
    {
      "inputs": [],
      "stateMutability": "nonpayable",
      "type": "constructor"
    },
    {
      "anonymous": false,
      "inputs": [
        {
          "indexed": true,
          "internalType": "address",
          "name": "instituteAddress",
          "type": "address"
        },
        {
          "indexed": false,
          "internalType": "string",
          "name": "name",
          "type": "string"
        },
        {
          "indexed": false,
          "internalType": "string",
          "name": "location",
          "type": "string"
        },
        {
          "indexed": false,
          "internalType": "address",
          "name": "walletAddress",
          "type": "address"
        },
        {
          "indexed": false,
          "internalType": "string",
          "name": "logo",
          "type": "string"
        }
      ],
      "name": "InstituteCreated",
      "type": "event"
    },
    {
      "anonymous": false,
      "inputs": [
        {
          "indexed": true,
          "internalType": "address",
          "name": "instituteAddress",
          "type": "address"
        }
      ],
      "name": "InstituteDeleted",
      "type": "event"
    },
    {
      "anonymous": false,
      "inputs": [
        {
          "indexed": true,
          "internalType": "address",
          "name": "instituteAddress",
          "type": "address"
        },
        {
          "indexed": false,
          "internalType": "string",
          "name": "name",
          "type": "string"
        },
        {
          "indexed": false,
          "internalType": "string",
          "name": "location",
          "type": "string"
        },
        {
          "indexed": false,
          "internalType": "address",
          "name": "walletAddress",
          "type": "address"
        },
        {
          "indexed": false,
          "internalType": "string",
          "name": "logo",
          "type": "string"
        }
      ],
      "name": "InstituteUpdated",
      "type": "event"
    },
    {
      "inputs": [
        {
          "internalType": "address",
          "name": "_instituteAddress",
          "type": "address"
        },
        {
          "internalType": "string",
          "name": "_name",
          "type": "string"
        },
        {
          "internalType": "string",
          "name": "_location",
          "type": "string"
        },
        {
          "internalType": "address",
          "name": "_walletAddress",
          "type": "address"
        },
        {
          "internalType": "string",
          "name": "_logo",
          "type": "string"
        }
      ],
      "name": "createInstitute",
      "outputs": [],
      "stateMutability": "nonpayable",
      "type": "function"
    },
    {
      "inputs": [
        {
          "internalType": "address",
          "name": "_instituteAddress",
          "type": "address"
        }
      ],
      "name": "deleteInstitute",
      "outputs": [],
      "stateMutability": "nonpayable",
      "type": "function"
    },
    {
      "inputs": [],
      "name": "getAllInstitutesForGovernment",
      "outputs": [
        {
          "internalType": "address[]",
          "name": "",
          "type": "address[]"
        },
        {
          "internalType": "string[]",
          "name": "",
          "type": "string[]"
        },
        {
          "internalType": "string[]",
          "name": "",
          "type": "string[]"
        },
        {
          "internalType": "address[]",
          "name": "",
          "type": "address[]"
        },
        {
          "internalType": "string[]",
          "name": "",
          "type": "string[]"
        }
      ],
      "stateMutability": "view",
      "type": "function"
    },
    {
      "inputs": [
        {
          "internalType": "address",
          "name": "_walletAddress",
          "type": "address"
        }
      ],
      "name": "getInstituteInfo",
      "outputs": [
        {
          "internalType": "string",
          "name": "",
          "type": "string"
        },
        {
          "internalType": "string",
          "name": "",
          "type": "string"
        },
        {
          "internalType": "address",
          "name": "",
          "type": "address"
        },
        {
          "internalType": "string",
          "name": "",
          "type": "string"
        }
      ],
      "stateMutability": "view",
      "type": "function"
    },
    {
      "inputs": [],
      "name": "government",
      "outputs": [
        {
          "internalType": "address",
          "name": "",
          "type": "address"
        }
      ],
      "stateMutability": "view",
      "type": "function"
    },
    {
      "inputs": [
        {
          "internalType": "address",
          "name": "",
          "type": "address"
        }
      ],
      "name": "institutes",
      "outputs": [
        {
          "internalType": "string",
          "name": "name",
          "type": "string"
        },
        {
          "internalType": "string",
          "name": "location",
          "type": "string"
        },
        {
          "internalType": "address",
          "name": "walletAddress",
          "type": "address"
        },
        {
          "internalType": "string",
          "name": "logo",
          "type": "string"
        },
        {
          "internalType": "bool",
          "name": "exists",
          "type": "bool"
        }
      ],
      "stateMutability": "view",
      "type": "function"
    },
    {
      "inputs": [
        {
          "internalType": "uint256",
          "name": "",
          "type": "uint256"
        }
      ],
      "name": "institutesList",
      "outputs": [
        {
          "internalType": "address",
          "name": "",
          "type": "address"
        }
      ],
      "stateMutability": "view",
      "type": "function"
    },
    {
      "inputs": [],
      "name": "totalInstitutes",
      "outputs": [
        {
          "internalType": "uint256",
          "name": "",
          "type": "uint256"
        }
      ],
      "stateMutability": "view",
      "type": "function"
    },
    {
      "inputs": [
        {
          "internalType": "address",
          "name": "_instituteAddress",
          "type": "address"
        },
        {
          "internalType": "string",
          "name": "_name",
          "type": "string"
        },
        {
          "internalType": "string",
          "name": "_location",
          "type": "string"
        },
        {
          "internalType": "address",
          "name": "_walletAddress",
          "type": "address"
        },
        {
          "internalType": "string",
          "name": "_logo",
          "type": "string"
        }
      ],
      "name": "updateInstitute",
      "outputs": [],
      "stateMutability": "nonpayable",
      "type": "function"
    },
    {
      "inputs": [
        {
          "internalType": "address",
          "name": "_walletAddress",
          "type": "address"
        }
      ],
      "name": "verifyIsInstitute",
      "outputs": [
        {
          "internalType": "bool",
          "name": "",
          "type": "bool"
        }
      ],
      "stateMutability": "view",
      "type": "function"
    }
  ],
  "bytecode": "0x608060405234801561001057600080fd5b5033600260006101000a81548173ffffffffffffffffffffffffffffffffffffffff021916908373ffffffffffffffffffffffffffffffffffffffff160217905550612395806100616000396000f3fe608060405234801561001057600080fd5b506004361061009e5760003560e01c8063bd0c468311610066578063bd0c468314610176578063c61aa3e114610192578063d0a7cb11146101ae578063e0d37926146101d0578063f5810d99146101ec5761009e565b80630440f6a6146100a35780632672f526146100d35780636e30d861146100f15780637e0e46b714610124578063b3fb1f1514610158575b600080fd5b6100bd60048036038101906100b891906119a7565b61021c565b6040516100ca91906119ef565b60405180910390f35b6100db610274565b6040516100e89190611a19565b60405180910390f35b61010b600480360381019061010691906119a7565b61029a565b60405161011b9493929190611acd565b60405180910390f35b61013e600480360381019061013991906119a7565b6105c7565b60405161014f959493929190611b27565b60405180910390f35b6101606107c2565b60405161016d9190611ba8565b60405180910390f35b610190600480360381019061018b9190611cf8565b6107c8565b005b6101ac60048036038101906101a79190611cf8565b610afc565b005b6101b6610df7565b6040516101c7959493929190611f91565b60405180910390f35b6101ea60048036038101906101e591906119a7565b61145f565b005b61020660048036038101906102019190612033565b611813565b6040516102139190611a19565b60405180910390f35b60008060008373ffffffffffffffffffffffffffffffffffffffff1673ffffffffffffffffffffffffffffffffffffffff16815260200190815260200160002060040160009054906101000a900460ff169050919050565b600260009054906101000a900473ffffffffffffffffffffffffffffffffffffffff1681565b606080600060606000808673ffffffffffffffffffffffffffffffffffffffff1673ffffffffffffffffffffffffffffffffffffffff16815260200190815260200160002060040160009054906101000a900460ff1661032f576040517f08c379a0000000000000000000000000000000000000000000000000000000008152600401610326906120ac565b60405180910390fd5b60008060008773ffffffffffffffffffffffffffffffffffffffff1673ffffffffffffffffffffffffffffffffffffffff1681526020019081526020016000206040518060a001604052908160008201805461038a906120fb565b80601f01602080910402602001604051908101604052809291908181526020018280546103b6906120fb565b80156104035780601f106103d857610100808354040283529160200191610403565b820191906000526020600020905b8154815290600101906020018083116103e657829003601f168201915b5050505050815260200160018201805461041c906120fb565b80601f0160208091040260200160405190810160405280929190818152602001828054610448906120fb565b80156104955780601f1061046a57610100808354040283529160200191610495565b820191906000526020600020905b81548152906001019060200180831161047857829003601f168201915b505050505081526020016002820160009054906101000a900473ffffffffffffffffffffffffffffffffffffffff1673ffffffffffffffffffffffffffffffffffffffff1673ffffffffffffffffffffffffffffffffffffffff168152602001600382018054610504906120fb565b80601f0160208091040260200160405190810160405280929190818152602001828054610530906120fb565b801561057d5780601f106105525761010080835404028352916020019161057d565b820191906000526020600020905b81548152906001019060200180831161056057829003601f168201915b505050505081526020016004820160009054906101000a900460ff161515151581525050905080600001518160200151826040015183606001519450945094509450509193509193565b60006020528060005260406000206000915090508060000180546105ea906120fb565b80601f0160208091040260200160405190810160405280929190818152602001828054610616906120fb565b80156106635780601f1061063857610100808354040283529160200191610663565b820191906000526020600020905b81548152906001019060200180831161064657829003601f168201915b505050505090806001018054610678906120fb565b80601f01602080910402602001604051908101604052809291908181526020018280546106a4906120fb565b80156106f15780601f106106c6576101008083540402835291602001916106f1565b820191906000526020600020905b8154815290600101906020018083116106d457829003601f168201915b5050505050908060020160009054906101000a900473ffffffffffffffffffffffffffffffffffffffff169080600301805461072c906120fb565b80601f0160208091040260200160405190810160405280929190818152602001828054610758906120fb565b80156107a55780601f1061077a576101008083540402835291602001916107a5565b820191906000526020600020905b81548152906001019060200180831161078857829003601f168201915b5050505050908060040160009054906101000a900460ff16905085565b60035481565b600260009054906101000a900473ffffffffffffffffffffffffffffffffffffffff1673ffffffffffffffffffffffffffffffffffffffff163373ffffffffffffffffffffffffffffffffffffffff1614610858576040517f08c379a000000000000000000000000000000000000000000000000000000000815260040161084f9061219f565b60405180910390fd5b6000808673ffffffffffffffffffffffffffffffffffffffff1673ffffffffffffffffffffffffffffffffffffffff16815260200190815260200160002060040160009054906101000a900460ff16156108e7576040517f08c379a00000000000000000000000000000000000000000000000000000000081526004016108de9061220b565b60405180910390fd5b6040518060a001604052808581526020018481526020018373ffffffffffffffffffffffffffffffffffffffff168152602001828152602001600115158152506000808773ffffffffffffffffffffffffffffffffffffffff1673ffffffffffffffffffffffffffffffffffffffff1681526020019081526020016000206000820151816000019080519060200190610981929190611852565b50602082015181600101908051906020019061099e929190611852565b5060408201518160020160006101000a81548173ffffffffffffffffffffffffffffffffffffffff021916908373ffffffffffffffffffffffffffffffffffffffff1602179055506060820151816003019080519060200190610a02929190611852565b5060808201518160040160006101000a81548160ff0219169083151502179055509050506001859080600181540180825580915050600190039060005260206000200160009091909190916101000a81548173ffffffffffffffffffffffffffffffffffffffff021916908373ffffffffffffffffffffffffffffffffffffffff16021790555060036000815480929190610a9c9061225a565b91905055508473ffffffffffffffffffffffffffffffffffffffff167f70871f46489d5d89c714ec140dba85f119ce615f2f4a51f6d25f752a51cc5d5085858585604051610aed9493929190611acd565b60405180910390a25050505050565b600260009054906101000a900473ffffffffffffffffffffffffffffffffffffffff1673ffffffffffffffffffffffffffffffffffffffff163373ffffffffffffffffffffffffffffffffffffffff1614610b8c576040517f08c379a0000000000000000000000000000000000000000000000000000000008152600401610b839061219f565b60405180910390fd5b6000808673ffffffffffffffffffffffffffffffffffffffff1673ffffffffffffffffffffffffffffffffffffffff16815260200190815260200160002060040160009054906101000a900460ff16610c1a576040517f08c379a0000000000000000000000000000000000000000000000000000000008152600401610c11906120ac565b60405180910390fd5b836000808773ffffffffffffffffffffffffffffffffffffffff1673ffffffffffffffffffffffffffffffffffffffff1681526020019081526020016000206000019080519060200190610c6f929190611852565b50826000808773ffffffffffffffffffffffffffffffffffffffff1673ffffffffffffffffffffffffffffffffffffffff1681526020019081526020016000206001019080519060200190610cc5929190611852565b50816000808773ffffffffffffffffffffffffffffffffffffffff1673ffffffffffffffffffffffffffffffffffffffff16815260200190815260200160002060020160006101000a81548173ffffffffffffffffffffffffffffffffffffffff021916908373ffffffffffffffffffffffffffffffffffffffff160217905550806000808773ffffffffffffffffffffffffffffffffffffffff1673ffffffffffffffffffffffffffffffffffffffff1681526020019081526020016000206003019080519060200190610d9b929190611852565b508473ffffffffffffffffffffffffffffffffffffffff167f57ce7c33e736ea9da4cfd07b5c4e32b987f266f950e394b66739b557255eec9485858585604051610de89493929190611acd565b60405180910390a25050505050565b6060806060806060600260009054906101000a900473ffffffffffffffffffffffffffffffffffffffff1673ffffffffffffffffffffffffffffffffffffffff163373ffffffffffffffffffffffffffffffffffffffff1614610e8f576040517f08c379a0000000000000000000000000000000000000000000000000000000008152600401610e869061219f565b60405180910390fd5b600060035467ffffffffffffffff811115610ead57610eac611bcd565b5b604051908082528060200260200182016040528015610edb5781602001602082028036833780820191505090505b509050600060035467ffffffffffffffff811115610efc57610efb611bcd565b5b604051908082528060200260200182016040528015610f2f57816020015b6060815260200190600190039081610f1a5790505b509050600060035467ffffffffffffffff811115610f5057610f4f611bcd565b5b604051908082528060200260200182016040528015610f8357816020015b6060815260200190600190039081610f6e5790505b509050600060035467ffffffffffffffff811115610fa457610fa3611bcd565b5b604051908082528060200260200182016040528015610fd25781602001602082028036833780820191505090505b509050600060035467ffffffffffffffff811115610ff357610ff2611bcd565b5b60405190808252806020026020018201604052801561102657816020015b60608152602001906001900390816110115790505b50905060005b6003548110156114435760008060006001848154811061104f5761104e6122a3565b5b9060005260206000200160009054906101000a900473ffffffffffffffffffffffffffffffffffffffff1673ffffffffffffffffffffffffffffffffffffffff1673ffffffffffffffffffffffffffffffffffffffff1681526020019081526020016000206040518060a00160405290816000820180546110cf906120fb565b80601f01602080910402602001604051908101604052809291908181526020018280546110fb906120fb565b80156111485780601f1061111d57610100808354040283529160200191611148565b820191906000526020600020905b81548152906001019060200180831161112b57829003601f168201915b50505050508152602001600182018054611161906120fb565b80601f016020809104026020016040519081016040528092919081815260200182805461118d906120fb565b80156111da5780601f106111af576101008083540402835291602001916111da565b820191906000526020600020905b8154815290600101906020018083116111bd57829003601f168201915b505050505081526020016002820160009054906101000a900473ffffffffffffffffffffffffffffffffffffffff1673ffffffffffffffffffffffffffffffffffffffff1673ffffffffffffffffffffffffffffffffffffffff168152602001600382018054611249906120fb565b80601f0160208091040260200160405190810160405280929190818152602001828054611275906120fb565b80156112c25780601f10611297576101008083540402835291602001916112c2565b820191906000526020600020905b8154815290600101906020018083116112a557829003601f168201915b505050505081526020016004820160009054906101000a900460ff1615151515815250509050600182815481106112fc576112fb6122a3565b5b9060005260206000200160009054906101000a900473ffffffffffffffffffffffffffffffffffffffff1687838151811061133a576113396122a3565b5b602002602001019073ffffffffffffffffffffffffffffffffffffffff16908173ffffffffffffffffffffffffffffffffffffffff1681525050806000015186838151811061138c5761138b6122a3565b5b602002602001018190525080602001518583815181106113af576113ae6122a3565b5b602002602001018190525080604001518483815181106113d2576113d16122a3565b5b602002602001019073ffffffffffffffffffffffffffffffffffffffff16908173ffffffffffffffffffffffffffffffffffffffff16815250508060600151838381518110611424576114236122a3565b5b602002602001018190525050808061143b9061225a565b91505061102c565b5084848484849950995099509950995050505050509091929394565b600260009054906101000a900473ffffffffffffffffffffffffffffffffffffffff1673ffffffffffffffffffffffffffffffffffffffff163373ffffffffffffffffffffffffffffffffffffffff16146114ef576040517f08c379a00000000000000000000000000000000000000000000000000000000081526004016114e69061219f565b60405180910390fd5b6000808273ffffffffffffffffffffffffffffffffffffffff1673ffffffffffffffffffffffffffffffffffffffff16815260200190815260200160002060040160009054906101000a900460ff1661157d576040517f08c379a0000000000000000000000000000000000000000000000000000000008152600401611574906120ac565b60405180910390fd5b6000808273ffffffffffffffffffffffffffffffffffffffff1673ffffffffffffffffffffffffffffffffffffffff168152602001908152602001600020600080820160006115cc91906118d8565b6001820160006115dc91906118d8565b6002820160006101000a81549073ffffffffffffffffffffffffffffffffffffffff021916905560038201600061161391906118d8565b6004820160006101000a81549060ff021916905550506003600081548092919061163c906122d2565b919050555060005b6001805490508110156117cc578173ffffffffffffffffffffffffffffffffffffffff166001828154811061167c5761167b6122a3565b5b9060005260206000200160009054906101000a900473ffffffffffffffffffffffffffffffffffffffff1673ffffffffffffffffffffffffffffffffffffffff1614156117b95760018080805490506116d591906122fc565b815481106116e6576116e56122a3565b5b9060005260206000200160009054906101000a900473ffffffffffffffffffffffffffffffffffffffff1660018281548110611725576117246122a3565b5b9060005260206000200160006101000a81548173ffffffffffffffffffffffffffffffffffffffff021916908373ffffffffffffffffffffffffffffffffffffffff160217905550600180548061177f5761177e612330565b5b6001900381819060005260206000200160006101000a81549073ffffffffffffffffffffffffffffffffffffffff021916905590556117cc565b80806117c49061225a565b915050611644565b508073ffffffffffffffffffffffffffffffffffffffff167f7a26b93d411999659c48dc836ffea3f6d02737faf6abbf264a8b34db7f4a885260405160405180910390a250565b6001818154811061182357600080fd5b906000526020600020016000915054906101000a900473ffffffffffffffffffffffffffffffffffffffff1681565b82805461185e906120fb565b90600052602060002090601f01602090048101928261188057600085556118c7565b82601f1061189957805160ff19168380011785556118c7565b828001600101855582156118c7579182015b828111156118c65782518255916020019190600101906118ab565b5b5090506118d49190611918565b5090565b5080546118e4906120fb565b6000825580601f106118f65750611915565b601f0160209004906000526020600020908101906119149190611918565b5b50565b5b80821115611931576000816000905550600101611919565b5090565b6000604051905090565b600080fd5b600080fd5b600073ffffffffffffffffffffffffffffffffffffffff82169050919050565b600061197482611949565b9050919050565b61198481611969565b811461198f57600080fd5b50565b6000813590506119a18161197b565b92915050565b6000602082840312156119bd576119bc61193f565b5b60006119cb84828501611992565b91505092915050565b60008115159050919050565b6119e9816119d4565b82525050565b6000602082019050611a0460008301846119e0565b92915050565b611a1381611969565b82525050565b6000602082019050611a2e6000830184611a0a565b92915050565b600081519050919050565b600082825260208201905092915050565b60005b83811015611a6e578082015181840152602081019050611a53565b83811115611a7d576000848401525b50505050565b6000601f19601f8301169050919050565b6000611a9f82611a34565b611aa98185611a3f565b9350611ab9818560208601611a50565b611ac281611a83565b840191505092915050565b60006080820190508181036000830152611ae78187611a94565b90508181036020830152611afb8186611a94565b9050611b0a6040830185611a0a565b8181036060830152611b1c8184611a94565b905095945050505050565b600060a0820190508181036000830152611b418188611a94565b90508181036020830152611b558187611a94565b9050611b646040830186611a0a565b8181036060830152611b768185611a94565b9050611b8560808301846119e0565b9695505050505050565b6000819050919050565b611ba281611b8f565b82525050565b6000602082019050611bbd6000830184611b99565b92915050565b600080fd5b600080fd5b7f4e487b7100000000000000000000000000000000000000000000000000000000600052604160045260246000fd5b611c0582611a83565b810181811067ffffffffffffffff82111715611c2457611c23611bcd565b5b80604052505050565b6000611c37611935565b9050611c438282611bfc565b919050565b600067ffffffffffffffff821115611c6357611c62611bcd565b5b611c6c82611a83565b9050602081019050919050565b82818337600083830152505050565b6000611c9b611c9684611c48565b611c2d565b905082815260208101848484011115611cb757611cb6611bc8565b5b611cc2848285611c79565b509392505050565b600082601f830112611cdf57611cde611bc3565b5b8135611cef848260208601611c88565b91505092915050565b600080600080600060a08688031215611d1457611d1361193f565b5b6000611d2288828901611992565b955050602086013567ffffffffffffffff811115611d4357611d42611944565b5b611d4f88828901611cca565b945050604086013567ffffffffffffffff811115611d7057611d6f611944565b5b611d7c88828901611cca565b9350506060611d8d88828901611992565b925050608086013567ffffffffffffffff811115611dae57611dad611944565b5b611dba88828901611cca565b9150509295509295909350565b600081519050919050565b600082825260208201905092915050565b6000819050602082019050919050565b611dfc81611969565b82525050565b6000611e0e8383611df3565b60208301905092915050565b6000602082019050919050565b6000611e3282611dc7565b611e3c8185611dd2565b9350611e4783611de3565b8060005b83811015611e78578151611e5f8882611e02565b9750611e6a83611e1a565b925050600181019050611e4b565b5085935050505092915050565b600081519050919050565b600082825260208201905092915050565b6000819050602082019050919050565b600082825260208201905092915050565b6000611ecd82611a34565b611ed78185611eb1565b9350611ee7818560208601611a50565b611ef081611a83565b840191505092915050565b6000611f078383611ec2565b905092915050565b6000602082019050919050565b6000611f2782611e85565b611f318185611e90565b935083602082028501611f4385611ea1565b8060005b85811015611f7f5784840389528151611f608582611efb565b9450611f6b83611f0f565b925060208a01995050600181019050611f47565b50829750879550505050505092915050565b600060a0820190508181036000830152611fab8188611e27565b90508181036020830152611fbf8187611f1c565b90508181036040830152611fd38186611f1c565b90508181036060830152611fe78185611e27565b90508181036080830152611ffb8184611f1c565b90509695505050505050565b61201081611b8f565b811461201b57600080fd5b50565b60008135905061202d81612007565b92915050565b6000602082840312156120495761204861193f565b5b60006120578482850161201e565b91505092915050565b7f496e7374697475746520646f6573206e6f742065786973740000000000000000600082015250565b6000612096601883611a3f565b91506120a182612060565b602082019050919050565b600060208201905081810360008301526120c581612089565b9050919050565b7f4e487b7100000000000000000000000000000000000000000000000000000000600052602260045260246000fd5b6000600282049050600182168061211357607f821691505b60208210811415612127576121266120cc565b5b50919050565b7f4f6e6c7920676f7665726e6d656e742063616e2063616c6c207468697320667560008201527f6e6374696f6e0000000000000000000000000000000000000000000000000000602082015250565b6000612189602683611a3f565b91506121948261212d565b604082019050919050565b600060208201905081810360008301526121b88161217c565b9050919050565b7f496e7374697475746520616c7265616479206578697374730000000000000000600082015250565b60006121f5601883611a3f565b9150612200826121bf565b602082019050919050565b60006020820190508181036000830152612224816121e8565b9050919050565b7f4e487b7100000000000000000000000000000000000000000000000000000000600052601160045260246000fd5b600061226582611b8f565b91507fffffffffffffffffffffffffffffffffffffffffffffffffffffffffffffffff8214156122985761229761222b565b5b600182019050919050565b7f4e487b7100000000000000000000000000000000000000000000000000000000600052603260045260246000fd5b60006122dd82611b8f565b915060008214156122f1576122f061222b565b5b600182039050919050565b600061230782611b8f565b915061231283611b8f565b9250828210156123255761232461222b565b5b828203905092915050565b7f4e487b7100000000000000000000000000000000000000000000000000000000600052603160045260246000fdfea26469706673582212207af7fa09b73025a418d2891d7c326e07d7142bd729ad195022d57149ab025ad564736f6c63430008090033",
  "linkReferences": {},
  "deployedLinkReferences": {}
}