{
  "_format": "hh-sol-artifact-1",
  "contractName": "CertificateGeneration",
  "sourceName": "contracts/CertificateGeneration.sol",
  "abi": [
    {
      "inputs": [],
      "stateMutability": "nonpayable",
      "type": "constructor"
    },
    {
      "anonymous": false,
      "inputs": [
        {
          "indexed": true,
          "internalType": "string",
          "name": "certificateId",
          "type": "string"
        },
        {
          "indexed": false,
          "internalType": "address",
          "name": "studentWallet",
          "type": "address"
        },
        {
          "indexed": false,
          "internalType": "string",
          "name": "studentName",
          "type": "string"
        },
        {
          "indexed": false,
          "internalType": "string",
          "name": "courseName",
          "type": "string"
        },
        {
          "indexed": false,
          "internalType": "string",
          "name": "specialization",
          "type": "string"
        },
        {
          "indexed": false,
          "internalType": "uint256",
          "name": "startYear",
          "type": "uint256"
        },
        {
          "indexed": false,
          "internalType": "uint256",
          "name": "endYear",
          "type": "uint256"
        },
        {
          "indexed": false,
          "internalType": "uint256",
          "name": "universityRegistrationNumber",
          "type": "uint256"
        },
        {
          "indexed": false,
          "internalType": "address",
          "name": "issuedBy",
          "type": "address"
        }
      ],
      "name": "CertificateIssued",
      "type": "event"
    },
    {
      "inputs": [
        {
          "internalType": "string",
          "name": "",
          "type": "string"
        }
      ],
      "name": "certificates",
      "outputs": [
        {
          "internalType": "address",
          "name": "studentWallet",
          "type": "address"
        },
        {
          "internalType": "string",
          "name": "studentName",
          "type": "string"
        },
        {
          "internalType": "string",
          "name": "courseName",
          "type": "string"
        },
        {
          "internalType": "string",
          "name": "specialization",
          "type": "string"
        },
        {
          "internalType": "uint256",
          "name": "startYear",
          "type": "uint256"
        },
        {
          "internalType": "uint256",
          "name": "endYear",
          "type": "uint256"
        },
        {
          "internalType": "uint256",
          "name": "universityRegistrationNumber",
          "type": "uint256"
        },
        {
          "internalType": "address",
          "name": "issuedBy",
          "type": "address"
        },
        {
          "internalType": "string",
          "name": "certificateId",
          "type": "string"
        }
      ],
      "stateMutability": "view",
      "type": "function"
    },
    {
      "inputs": [
        {
          "internalType": "address",
          "name": "_studentWallet",
          "type": "address"
        }
      ],
      "name": "getStudentCertificates",
      "outputs": [
        {
          "internalType": "string[]",
          "name": "",
          "type": "string[]"
        }
      ],
      "stateMutability": "view",
      "type": "function"
    },
    {
      "inputs": [],
      "name": "instituteWallet",
      "outputs": [
        {
          "internalType": "address",
          "name": "",
          "type": "address"
        }
      ],
      "stateMutability": "view",
      "type": "function"
    },
    {
      "inputs": [
        {
          "internalType": "address",
          "name": "_studentWallet",
          "type": "address"
        },
        {
          "internalType": "string",
          "name": "_studentName",
          "type": "string"
        },
        {
          "internalType": "string",
          "name": "_courseName",
          "type": "string"
        },
        {
          "internalType": "string",
          "name": "_specialization",
          "type": "string"
        },
        {
          "internalType": "uint256",
          "name": "_startYear",
          "type": "uint256"
        },
        {
          "internalType": "uint256",
          "name": "_endYear",
          "type": "uint256"
        },
        {
          "internalType": "uint256",
          "name": "_universityRegistrationNumber",
          "type": "uint256"
        }
      ],
      "name": "issueCertificate",
      "outputs": [
        {
          "internalType": "string",
          "name": "",
          "type": "string"
        }
      ],
      "stateMutability": "nonpayable",
      "type": "function"
    },
    {
      "inputs": [
        {
          "internalType": "address",
          "name": "",
          "type": "address"
        },
        {
          "internalType": "uint256",
          "name": "",
          "type": "uint256"
        }
      ],
      "name": "studentCertificates",
      "outputs": [
        {
          "internalType": "string",
          "name": "",
          "type": "string"
        }
      ],
      "stateMutability": "view",
      "type": "function"
    },
    {
      "inputs": [
        {
          "internalType": "string",
          "name": "_certificateId",
          "type": "string"
        }
      ],
      "name": "verifyCertificate",
      "outputs": [
        {
          "internalType": "string",
          "name": "",
          "type": "string"
        },
        {
          "internalType": "address",
          "name": "",
          "type": "address"
        },
        {
          "internalType": "string",
          "name": "",
          "type": "string"
        },
        {
          "internalType": "string",
          "name": "",
          "type": "string"
        },
        {
          "internalType": "string",
          "name": "",
          "type": "string"
        },
        {
          "internalType": "uint256",
          "name": "",
          "type": "uint256"
        },
        {
          "internalType": "uint256",
          "name": "",
          "type": "uint256"
        },
        {
          "internalType": "uint256",
          "name": "",
          "type": "uint256"
        },
        {
          "internalType": "address",
          "name": "",
          "type": "address"
        }
      ],
      "stateMutability": "view",
      "type": "function"
    }
  ],
  "bytecode": "0x608060405234801561001057600080fd5b5033600260006101000a81548173ffffffffffffffffffffffffffffffffffffffff021916908373ffffffffffffffffffffffffffffffffffffffff160217905550611c5a806100616000396000f3fe608060405234801561001057600080fd5b50600436106100625760003560e01c80633a7d6ba9146100675780637a8307b6146100975780638b23d875146100b55780638f2b91ea146100ed578063c3934f0e14610125578063ebc63bc014610155575b600080fd5b610081600480360381019061007c9190611229565b610185565b60405161008e91906113a7565b60405180910390f35b61009f61042c565b6040516100ac91906113d8565b60405180910390f35b6100cf60048036038101906100ca91906113f3565b610452565b6040516100e49998979695949392919061144b565b60405180910390f35b610107600480360381019061010291906113f3565b610833565b60405161011c999897969594939291906114f4565b60405180910390f35b61013f600480360381019061013a919061159d565b610af7565b60405161014c91906113a7565b60405180910390f35b61016f600480360381019061016a91906115dd565b610bb0565b60405161017c9190611716565b60405180910390f35b606060006101998989898989898933610cc8565b90506040518061012001604052808a73ffffffffffffffffffffffffffffffffffffffff1681526020018981526020018881526020018781526020018681526020018581526020018481526020013373ffffffffffffffffffffffffffffffffffffffff168152602001828152506000826040516102179190611774565b908152602001604051809103902060008201518160000160006101000a81548173ffffffffffffffffffffffffffffffffffffffff021916908373ffffffffffffffffffffffffffffffffffffffff1602179055506020820151816001019080519060200190610288929190610f98565b5060408201518160020190805190602001906102a5929190610f98565b5060608201518160030190805190602001906102c2929190610f98565b506080820151816004015560a0820151816005015560c0820151816006015560e08201518160070160006101000a81548173ffffffffffffffffffffffffffffffffffffffff021916908373ffffffffffffffffffffffffffffffffffffffff160217905550610100820151816008019080519060200190610345929190610f98565b50905050600160008a73ffffffffffffffffffffffffffffffffffffffff1673ffffffffffffffffffffffffffffffffffffffff168152602001908152602001600020819080600181540180825580915050600190039060005260206000200160009091909190915090805190602001906103c1929190610f98565b50806040516103d09190611774565b60405180910390207fed7a8f41be86e43e8f6ee673e5660c34c3008c91797477159f4f89c22db25aab8a8a8a8a8a8a8a3360405161041598979695949392919061178b565b60405180910390a280915050979650505050505050565b600260009054906101000a900473ffffffffffffffffffffffffffffffffffffffff1681565b6060600060608060606000806000806000808b6040516104729190611774565b9081526020016040518091039020604051806101200160405290816000820160009054906101000a900473ffffffffffffffffffffffffffffffffffffffff1673ffffffffffffffffffffffffffffffffffffffff1673ffffffffffffffffffffffffffffffffffffffff1681526020016001820180546104f29061184d565b80601f016020809104026020016040519081016040528092919081815260200182805461051e9061184d565b801561056b5780601f106105405761010080835404028352916020019161056b565b820191906000526020600020905b81548152906001019060200180831161054e57829003601f168201915b505050505081526020016002820180546105849061184d565b80601f01602080910402602001604051908101604052809291908181526020018280546105b09061184d565b80156105fd5780601f106105d2576101008083540402835291602001916105fd565b820191906000526020600020905b8154815290600101906020018083116105e057829003601f168201915b505050505081526020016003820180546106169061184d565b80601f01602080910402602001604051908101604052809291908181526020018280546106429061184d565b801561068f5780601f106106645761010080835404028352916020019161068f565b820191906000526020600020905b81548152906001019060200180831161067257829003601f168201915b505050505081526020016004820154815260200160058201548152602001600682015481526020016007820160009054906101000a900473ffffffffffffffffffffffffffffffffffffffff1673ffffffffffffffffffffffffffffffffffffffff1673ffffffffffffffffffffffffffffffffffffffff16815260200160088201805461071c9061184d565b80601f01602080910402602001604051908101604052809291908181526020018280546107489061184d565b80156107955780601f1061076a57610100808354040283529160200191610795565b820191906000526020600020905b81548152906001019060200180831161077857829003601f168201915b505050505081525050905060008161010001515114156107ea576040517f08c379a00000000000000000000000000000000000000000000000000000000081526004016107e1906118cb565b60405180910390fd5b8a816000015182602001518360400151846060015185608001518660a001518760c001518860e00151995099509950995099509950995099509950509193959799909294969850565b6000818051602081018201805184825260208301602085012081835280955050505050506000915090508060000160009054906101000a900473ffffffffffffffffffffffffffffffffffffffff16908060010180546108929061184d565b80601f01602080910402602001604051908101604052809291908181526020018280546108be9061184d565b801561090b5780601f106108e05761010080835404028352916020019161090b565b820191906000526020600020905b8154815290600101906020018083116108ee57829003601f168201915b5050505050908060020180546109209061184d565b80601f016020809104026020016040519081016040528092919081815260200182805461094c9061184d565b80156109995780601f1061096e57610100808354040283529160200191610999565b820191906000526020600020905b81548152906001019060200180831161097c57829003601f168201915b5050505050908060030180546109ae9061184d565b80601f01602080910402602001604051908101604052809291908181526020018280546109da9061184d565b8015610a275780601f106109fc57610100808354040283529160200191610a27565b820191906000526020600020905b815481529060010190602001808311610a0a57829003601f168201915b5050505050908060040154908060050154908060060154908060070160009054906101000a900473ffffffffffffffffffffffffffffffffffffffff1690806008018054610a749061184d565b80601f0160208091040260200160405190810160405280929190818152602001828054610aa09061184d565b8015610aed5780601f10610ac257610100808354040283529160200191610aed565b820191906000526020600020905b815481529060010190602001808311610ad057829003601f168201915b5050505050905089565b60016020528160005260406000208181548110610b1357600080fd5b90600052602060002001600091509150508054610b2f9061184d565b80601f0160208091040260200160405190810160405280929190818152602001828054610b5b9061184d565b8015610ba85780601f10610b7d57610100808354040283529160200191610ba8565b820191906000526020600020905b815481529060010190602001808311610b8b57829003601f168201915b505050505081565b6060600160008373ffffffffffffffffffffffffffffffffffffffff1673ffffffffffffffffffffffffffffffffffffffff168152602001908152602001600020805480602002602001604051908101604052809291908181526020016000905b82821015610cbd578382906000526020600020018054610c309061184d565b80601f0160208091040260200160405190810160405280929190818152602001828054610c5c9061184d565b8015610ca95780601f10610c7e57610100808354040283529160200191610ca9565b820191906000526020600020905b815481529060010190602001808311610c8c57829003601f168201915b505050505081526020019060010190610c11565b505050509050919050565b606060008989898989898989604051602001610ceb989796959493929190611954565b60405160208183030381529060405290506000600143610d0b9190611a09565b4033604051602001610d1e929190611a68565b6040516020818303038152906040528051906020012090506000610d4182610da7565b90508281604051602001610d56929190611a94565b6040516020818303038152906040529250610d9683604051602001610d7b9190611774565b60405160208183030381529060405280519060200120610da7565b935050505098975050505050505050565b60606000604067ffffffffffffffff811115610dc657610dc56110c8565b5b6040519080825280601f01601f191660200182016040528015610df85781602001600182028036833780820191505090505b50905060005b6020811015610f8e5760006004858360208110610e1e57610e1d611ab8565b5b1a60f81b7effffffffffffffffffffffffffffffffffffffffffffffffffffffffffffff1916901c60f81c90506000600f60f81b868460208110610e6557610e64611ab8565b5b1a60f81b1660f81c9050600a8260ff1610610e8f57605782610e879190611af4565b60f81b610ea0565b603082610e9c9190611af4565b60f81b5b84600285610eae9190611b2b565b81518110610ebf57610ebe611ab8565b5b60200101907effffffffffffffffffffffffffffffffffffffffffffffffffffffffffffff1916908160001a905350600a8160ff1610610f0e57605781610f069190611af4565b60f81b610f1f565b603081610f1b9190611af4565b60f81b5b846001600286610f2f9190611b2b565b610f399190611b85565b81518110610f4a57610f49611ab8565b5b60200101907effffffffffffffffffffffffffffffffffffffffffffffffffffffffffffff1916908160001a90535050508080610f8690611bdb565b915050610dfe565b5080915050919050565b828054610fa49061184d565b90600052602060002090601f016020900481019282610fc6576000855561100d565b82601f10610fdf57805160ff191683800117855561100d565b8280016001018555821561100d579182015b8281111561100c578251825591602001919060010190610ff1565b5b50905061101a919061101e565b5090565b5b8082111561103757600081600090555060010161101f565b5090565b6000604051905090565b600080fd5b600080fd5b600073ffffffffffffffffffffffffffffffffffffffff82169050919050565b600061107a8261104f565b9050919050565b61108a8161106f565b811461109557600080fd5b50565b6000813590506110a781611081565b92915050565b600080fd5b600080fd5b6000601f19601f8301169050919050565b7f4e487b7100000000000000000000000000000000000000000000000000000000600052604160045260246000fd5b611100826110b7565b810181811067ffffffffffffffff8211171561111f5761111e6110c8565b5b80604052505050565b600061113261103b565b905061113e82826110f7565b919050565b600067ffffffffffffffff82111561115e5761115d6110c8565b5b611167826110b7565b9050602081019050919050565b82818337600083830152505050565b600061119661119184611143565b611128565b9050828152602081018484840111156111b2576111b16110b2565b5b6111bd848285611174565b509392505050565b600082601f8301126111da576111d96110ad565b5b81356111ea848260208601611183565b91505092915050565b6000819050919050565b611206816111f3565b811461121157600080fd5b50565b600081359050611223816111fd565b92915050565b600080600080600080600060e0888a03121561124857611247611045565b5b60006112568a828b01611098565b975050602088013567ffffffffffffffff8111156112775761127661104a565b5b6112838a828b016111c5565b965050604088013567ffffffffffffffff8111156112a4576112a361104a565b5b6112b08a828b016111c5565b955050606088013567ffffffffffffffff8111156112d1576112d061104a565b5b6112dd8a828b016111c5565b94505060806112ee8a828b01611214565b93505060a06112ff8a828b01611214565b92505060c06113108a828b01611214565b91505092959891949750929550565b600081519050919050565b600082825260208201905092915050565b60005b8381101561135957808201518184015260208101905061133e565b83811115611368576000848401525b50505050565b60006113798261131f565b611383818561132a565b935061139381856020860161133b565b61139c816110b7565b840191505092915050565b600060208201905081810360008301526113c1818461136e565b905092915050565b6113d28161106f565b82525050565b60006020820190506113ed60008301846113c9565b92915050565b60006020828403121561140957611408611045565b5b600082013567ffffffffffffffff8111156114275761142661104a565b5b611433848285016111c5565b91505092915050565b611445816111f3565b82525050565b6000610120820190508181036000830152611466818c61136e565b9050611475602083018b6113c9565b8181036040830152611487818a61136e565b9050818103606083015261149b818961136e565b905081810360808301526114af818861136e565b90506114be60a083018761143c565b6114cb60c083018661143c565b6114d860e083018561143c565b6114e66101008301846113c9565b9a9950505050505050505050565b60006101208201905061150a600083018c6113c9565b818103602083015261151c818b61136e565b90508181036040830152611530818a61136e565b90508181036060830152611544818961136e565b9050611553608083018861143c565b61156060a083018761143c565b61156d60c083018661143c565b61157a60e08301856113c9565b81810361010083015261158d818461136e565b90509a9950505050505050505050565b600080604083850312156115b4576115b3611045565b5b60006115c285828601611098565b92505060206115d385828601611214565b9150509250929050565b6000602082840312156115f3576115f2611045565b5b600061160184828501611098565b91505092915050565b600081519050919050565b600082825260208201905092915050565b6000819050602082019050919050565b600082825260208201905092915050565b60006116528261131f565b61165c8185611636565b935061166c81856020860161133b565b611675816110b7565b840191505092915050565b600061168c8383611647565b905092915050565b6000602082019050919050565b60006116ac8261160a565b6116b68185611615565b9350836020820285016116c885611626565b8060005b8581101561170457848403895281516116e58582611680565b94506116f083611694565b925060208a019950506001810190506116cc565b50829750879550505050505092915050565b6000602082019050818103600083015261173081846116a1565b905092915050565b600081905092915050565b600061174e8261131f565b6117588185611738565b935061176881856020860161133b565b80840191505092915050565b60006117808284611743565b915081905092915050565b6000610100820190506117a1600083018b6113c9565b81810360208301526117b3818a61136e565b905081810360408301526117c7818961136e565b905081810360608301526117db818861136e565b90506117ea608083018761143c565b6117f760a083018661143c565b61180460c083018561143c565b61181160e08301846113c9565b9998505050505050505050565b7f4e487b7100000000000000000000000000000000000000000000000000000000600052602260045260246000fd5b6000600282049050600182168061186557607f821691505b602082108114156118795761187861181e565b5b50919050565b7f4365727469666963617465206e6f7420666f756e640000000000000000000000600082015250565b60006118b560158361132a565b91506118c08261187f565b602082019050919050565b600060208201905081810360008301526118e4816118a8565b9050919050565b60008160601b9050919050565b6000611903826118eb565b9050919050565b6000611915826118f8565b9050919050565b61192d6119288261106f565b61190a565b82525050565b6000819050919050565b61194e611949826111f3565b611933565b82525050565b6000611960828b61191c565b601482019150611970828a611743565b915061197c8289611743565b91506119888288611743565b9150611994828761193d565b6020820191506119a4828661193d565b6020820191506119b4828561193d565b6020820191506119c4828461191c565b6014820191508190509998505050505050505050565b7f4e487b7100000000000000000000000000000000000000000000000000000000600052601160045260246000fd5b6000611a14826111f3565b9150611a1f836111f3565b925082821015611a3257611a316119da565b5b828203905092915050565b6000819050919050565b6000819050919050565b611a62611a5d82611a3d565b611a47565b82525050565b6000611a748285611a51565b602082019150611a84828461191c565b6014820191508190509392505050565b6000611aa08285611743565b9150611aac8284611743565b91508190509392505050565b7f4e487b7100000000000000000000000000000000000000000000000000000000600052603260045260246000fd5b600060ff82169050919050565b6000611aff82611ae7565b9150611b0a83611ae7565b92508260ff03821115611b2057611b1f6119da565b5b828201905092915050565b6000611b36826111f3565b9150611b41836111f3565b9250817fffffffffffffffffffffffffffffffffffffffffffffffffffffffffffffffff0483118215151615611b7a57611b796119da565b5b828202905092915050565b6000611b90826111f3565b9150611b9b836111f3565b9250827fffffffffffffffffffffffffffffffffffffffffffffffffffffffffffffffff03821115611bd057611bcf6119da565b5b828201905092915050565b6000611be6826111f3565b91507fffffffffffffffffffffffffffffffffffffffffffffffffffffffffffffffff821415611c1957611c186119da565b5b60018201905091905056fea2646970667358221220588c266320eb47ddd5b97bc87105e460fbd362e012b5bc7b837727e41cd8620964736f6c63430008090033",
  "linkReferences": {},
  "deployedLinkReferences": {}
}